:020000040800F2
:10000000E81F002079640008B9640008BB64000898
:10001000BD640008BF640008C1640008000000005F
:10002000000000000000000000000000C3640008A1
:10003000C564000800000000C764000835710008AE
:10004000CB640008CB640008CB640008CB640008D4
:10005000CB640008CB640008CB640008CB640008C4
:10006000CB640008CB640008CB640008CB640008B4
:10007000CB640008CB640008EF750008CB6400086F
:10008000CB640008CB640008CB640008CB64000894
:10009000CB640008CB640008CB640008CB64000884
:1000A000CB640008CB640008CB640008CB64000874
:1000B000B16D0008C16D0008CB640008416B0008F9
:1000C0001F690008456B0008436B0008CB640008FB
:1000D000CB640008CB640008CB640008CB64000844
:1000E000CB640008CB640008CB640008DFF80CD0B8
:1000F00008F0ACF9004800476D150008E81F002023
:100100002DE9F04F4FF0000B8DB0EA480121CDF8FA
:1001100010B00170D946DA46D8465F46E6A007F02F
:100120002CFBEDA007F029FBF4A007F026FB00BF95
:1001300007F0FBFA0028FBD007F004FBFAA007F059
:100140001CFBFF4C002641F2883500BF06F0D2F9B7
:10015000B4F9040007F0D6FE394607F074FC0746F0
:100160004FF47A7007F0FBF8761C36B2AE42EDDB46
:10017000F449384607F0F5FC6946089004F092F916
:10018000684607F0FAFAE7A007F0F7FAEEA007F0E2
:10019000F4FADAA007F0F1FA07F0C7FA0028FBD06A
:1001A00007F0D0FAE0A007F0E8FA00274FF47A76DB
:1001B00006F0A0F9B4F9040007F0A4FE414607F0E8
:1001C00042FC8046304607F0CAF87F1C3FB2AF427F
:1001D000EEDBDC49404607F0C4FC6946079004F0BA
:1001E00061F9684607F0C9FACEA007F0C6FADDE962
:1001F000071007F028FC4FF0FF3107F0F2FCDB4955
:10020000C860079820F0004007F0D6FE074608981F
:10021000884620F0004007F0CFFE3A46434607F0FC
:10022000ECFC02460B464FF02040D14907F0FBFDA5
:1002300007F0ECFECD498861CEA007F09EFAAFA092
:1002400007F09BFA07F071FA0028FBD007F07AFA62
:10025000B5A007F092FA002706F04CF9B4F90200B5
:1002600007F050FE494607F0EEFB8146304607F0A6
:1002700076F87F1C3FB2AF42EEDBB249484607F04A
:1002800070FC6946059004F00DF9684607F075FAB0
:10029000A4A007F072FAC0A007F06FFA97A007F0C9
:1002A0006CFA00BF07F041FA0028FBD007F04AFAC9
:1002B0009DA007F062FA002706F01CF9B4F90200CD
:1002C00007F020FE514607F0BEFB8246304607F09D
:1002D00046F87F1C3FB2AF42EEDB9A49504607F02A
:1002E00040FC8246694604F0DDF8684607F045FAAE
:1002F0008CA007F042FA5146059807F0A4FB4FF096
:10030000FF3107F06EFCDFF86492C9F808002AF0AC
:10031000004007F051FE07460598884620F000404F
:1003200007F04AFE3A46434607F067FC02460B4692
:100330004FF020408E4907F076FD07F067FEC9F8C0
:1003400014009FA007F019FA6CA007F016FA00BF7E
:1003500007F0EBF90028FBD007F0F4F972A007F0E2
:100360000CFA002706F0C6F8B4F9000007F0CAFD41
:10037000594607F068FB8346304606F0F0FF7F1CC5
:100380003FB2AF42EEDB6F49584607F0EAFB8046CA
:10039000694604F087F8684607F0EFF961A007F0B6
:1003A000ECF990A007F0E9F954A007F0E6F900BFD6
:1003B00007F0BBF90028FBD007F0C4F95AA007F0FA
:1003C000DCF9002706F096F8B4F9000007F09AFD72
:1003D000049907F038FB0490304606F0C0FF7F1CFC
:1003E0003FB2AF42EEDB5749049807F0BAFB07462D
:1003F000694604F057F8684607F0BFF949A007F0CE
:10040000BCF93946404607F01EFB4FF0FF3107F0BC
:10041000E8FBC9F804004C4627F0004007F0CCFD8B
:1004200005460E4628F0004007F0C6FD2A46334632
:1004300007F0E3FB02460B464FF020404C4907F023
:10044000F2FC07F0E3FD20616946404604F02AF81B
:10045000684607F092F96DA007F08FF969463846B3
:1004600004F020F8684607F088F968A007F085F9DD
:100470006946206904F016F8684607F07EF963A023
:1004800007F07BF96946606804F00CF8684607F0ED
:1004900074F95EA007F071F94046616807F025FB2A
:1004A000216907F028FB694603F0FCFF684607F066
:1004B00064F9ADE08C0000200A416363656C6572ED
:1004C0006F6D657465722043616C696272617469F5
:1004D0006F6E3A0A0A000000506C61636520616328
:1004E00063656C65726F6D657465722072696768AB
:1004F0007420736964652075700A000020205365BC
:100500006E64206120636861726163746572207734
:1005100068656E20726561647920746F2070726FF7
:10052000636565640A0A000020204761746865728B
:10053000696E6720446174612E2E2E0A0A00000045
:100540008E00002000409C45506C61636520616313
:1005500063656C65726F6D6574657220757020736C
:1005600069646520646F776E0A00000060030020F4
:10057000ED9C3340506C61636520616363656C651D
:10058000726F6D65746572206C6566742065646752
:100590006520646F776E0A00506C6163652061634B
:1005A00063656C65726F6D657465722072696768EA
:1005B00074206564676520646F776E0A0000000030
:1005C000506C61636520616363656C65726F6D6516
:1005D0007465722072656172206564676520646F5E
:1005E000776E0A00506C61636520616363656C65BA
:1005F000726F6D657465722066726F6E74206564CB
:10060000676520646F776E0A000000002C200000F0
:10061000AFF2080007F0B1F83846616807F065FAF4
:10062000216907F068FA694603F03CFF684607F065
:10063000A4F8AFF2101007F0A0F86946059803F08F
:1006400031FF684607F099F8AFF2400007F095F8DF
:100650006946504603F026FF684607F08EF8AFF271
:10066000540007F08AF86946606903F01BFF68468A
:1006700007F083F8AFF26C0007F07FF86946A068D6
:1006800003F010FF684607F078F8AFF2800007F03B
:1006900074F8A168059807F028FA616907F02BFA49
:1006A000694603F0FFFE684607F067F8AFF2A40062
:1006B00007F063F85046A16807F017FA616907F080
:1006C0001AFA694603F0EEFE684607F056F8AFF2F4
:1006D000AC1007F052F86946079803F0E3FE68464D
:1006E00007F04BF8AFF2DC0007F047F869460898CE
:1006F00003F0D8FE684607F040F8AFF2F00007F0CC
:100700003CF86946A06903F0CDFE684607F035F86D
:10071000AFF2081007F031F86946E06803F0C2FE56
:10072000684607F02AF8AFF21C1007F026F8E168D7
:10073000079807F0DAF9A16907F0DDF9694603F0D7
:10074000B1FE684607F019F8AFF2401007F015F84F
:10075000E168089807F0C9F9A16907F0CCF9694682
:1007600003F0A0FE684607F008F8AFF2982007F003
:1007700004F804A007F001F80A48002101700DB048
:10078000BDE8F08F0A416363656C2043616C696268
:10079000726174696F6E20436F6D706C6574652E45
:1007A0000A0000008C0000202DE9F14FDFF83091A5
:1007B0004C4F4D4E99F80000DFF830A1DFF830B112
:1007C0004C4D07F1240401284CD0002861D0B846D4
:1007D000A969494B3868009A01F082FD414F464BA8
:1007E0000C3724333860E869009A80F00041D8F86B
:1007F000040001F075FD786099F8001089B339683C
:10080000C4E900103D483E4F8078012858D0B068B8
:1008100007F0D2FB52465B4607F095FA07F0F6FB6D
:10082000A060286A3860344BE96B6C3B2068009A02
:1008300001F056FD2B4E304B1836483B3060286C8B
:10084000009A80F00041606801F04AFD70602A4B18
:10085000696C243BA068009A01F042FDB060BDE8DD
:10086000F88F16E0306807F0A7FBDFF89880264B7A
:10087000424607F068FA07F0C9FB3860706807F075
:100880009BFB4246204B07F05EFA07F0BFFB786007
:100890009DE7306807F090FB57465246D8465B46C6
:1008A00007F051FA07F0B2FB2060706807F084FB94
:1008B0003A46434607F047FA07F0A8FB6060A1E715
:1008C0001248807818B90021052001F077FD0A4B05
:1008D000296A4833009A386801F002FDA060A2E757
:1008E0000800002018020020140000207B14AE47EE
:1008F000E17A743F08030020700400200B00002000
:1009000000000020FCA9F1D24D62503F0E000020F3
:100910002DE9F04105460446A34EA44F08E0A24845
:1009200007F080F818B1611B801B38448170641C8B
:1009300021780029F3D1BDE8F08110B57C229C49D3
:100940009C4807F043F84FF4D8729B49974807F04A
:100950003DF8964C4FF07E529849206903F06AFDAD
:10096000206110BD70B505F08DF8342005F0F4F865
:100970008F4D284605F0B4F804280AD18D4E002486
:100980006019315905F0C8F8042802D1241D7C2CC7
:10099000F6D305F07DF8BDE87040CEE72DE9F041D3
:1009A00005F070F8342005F0D7F8834D284605F09F
:1009B00097F804280CD17D4E00244FF4D877315994
:1009C000601905F0A9F8042802D1241DBC42F6D311
:1009D00005F05EF8BDE8F041AFE72DE9F04188464B
:1009E0007349774F00250C7839784FF07E5608B957
:1009F0008C4228D06F48744A744B0170456071492D
:100A00008560C0E903514161C0E906150562456290
:100A10008562C5620563456389078563C0E9112165
:100A2000C0E91331C0E91531C0E90F5600F15C038C
:100A300026C36749C0E91A516649C0E91C156649D1
:100A40008167FFF78FFFB8F1000F02D178788442F9
:100A50007ED0564C78782070657060A0FFF758FF04
:100A60004FF4C87060813220A0810320A0735F48DA
:100A70005D492661C4E905105D4AC4E907205D4867
:100A800004F124035C4A25C32563C4E90D52E563E0
:100A90002564656484F84850C4E913256565C4E994
:100AA000165225666566A56684F86C50534BC4E9FA
:100AB0001C35A567C4E91F52C4F88450C4F8885097
:100AC000C4F88C5084F890504FF08147C4E92575E4
:100AD0004FF07C52C4F89C50C4E92852C4F8A85086
:100AE000C4F8AC500123C4F8B05084F8B430C4E961
:100AF0002E75C4F8C050C4E93152C4F8CC50C4F8C3
:100B0000D050C4F8D45084F8D8303D4FC4E937757C
:100B1000C4F8E450C4E93A52C4F8F050C4F8F450B0
:100B2000C4F8F85084F8FC30364AC4E94021C4E9DE
:100B30004202C4E94410C4E94621C4E94802C4E9B8
:100B40004A10C4E94C62C4F84061C4E94E1000E0A8
:100B500028E0042184F844111849C4E95261C4F81A
:100B60005011C4F85411C4E95616C4E95816C4E922
:100B70005A16C4F87061C4E95D65C4F87C51C4F8C4
:100B80008051C4F88451C4F88851C4E96351C4E960
:100B90006561C4F89C61C4E96820C4E96A20BDE8C5
:100BA000F041FBE6C7E60000A8A80008DC0300202F
:100BB00000FC01086003002000F80108000080BF6D
:100BC000040000206DE71C3DCDCCCC3D0AD7A33BF3
:100BD0006DE71CC100007F4300802644544145520C
:100BE000313233340000000000803B45008009456D
:100BF00000806D4500007A45000048430000C8436E
:100C0000000040400000FA442DE9F05F6F48DFF833
:100C1000C081704C0078DFF8C09101283AD10025DE
:100C200046467019807806F07BF907F074F944F8AD
:100C300025006D1CEDB2082DF3D375692068294697
:100C400006F053FF20602946606806F04EFF6060A2
:100C50002946A06806F049FFA0604946284606F0EC
:100C600044FF0546E16806F043FFE060284621693D
:100C700006F03EFF20612846616906F039FF606199
:100C80002846A16906F034FFA0612846E16906F014
:100C90002FFFE0614F4A0020921FD11E0B5C1354BE
:100CA000401CC0B20328F9D30027DFF830B14FF061
:100CB000010A3E4654F827005946884209DC10F1E3
:100CC000795F06D8434944F82760093901F807A03D
:100CD00012E0404A093AB0F5000FD65502DB06F0A3
:100CE00004FF01E006F0AFFE3D4906F004FF3D4978
:100CF00006F037FF44F82700364D7F1CFFB20C3D4D
:100D0000032FD7D34746D8F81810E06807F09AF9B0
:100D100053D24946B86906F0E8FEA16807F09CF98D
:100D200005D26878012802D16E7001F04EFBBB46F7
:100D30004946B86906F0D9FEA046A16807F08CF9CB
:100D400001D2012700E000274946DBF81C0006F02D
:100D5000CCFED8F8001007F075F901D2012000E0B0
:100D6000002007404946DBF8180006F0BEFED8F820
:100D7000041007F071F901D2012000E000200742C1
:100D800004D006F09FFD032000F023FF4946DBF866
:100D90001C0006F0AAFED8F8081007F053F90BD291
:100DA000687848B9A878401CC0B2A870322804D925
:100DB00001F00BFB85F801A0AE702169494503DD08
:100DC00085F800A0BDE8F09F2E70FBE7FC00002036
:100DD000DC0300201400002000803B450000C041DF
:100DE00000007A44000074442DE9F04F002491B0D3
:100DF0004FF47A7000940F902546A8482E46B046CE
:100E000006940121C14601704FF4FA6BCA46A4A0B2
:100E100006F0B3FCAAA006F0B0FC002706F002FD25
:100E2000B048B0F9000007F06DF8214606F00BFE5F
:100E30000446AC48B0F9020007F064F8294606F011
:100E400002FE0546A748B0F9040007F05BF83146FA
:100E500006F0F9FD0646A448B0F9000007F052F884
:100E6000A24906F0F0FDA24906F07BFEA14906F07A
:100E7000EAFD069906F0E7FD06900F9806F06FFA76
:100E80007F1CBFB258465F45C8D307F044F80590B1
:100E900004902046059906F064FE07462846059909
:100EA00006F05FFE0C903046059906F05AFE0B9056
:100EB000DDE9051006F055FE06908FA006F05DFCFA
:100EC00001A9069803F0EEFA01A806F056FC91A0DD
:100ED00006F053FC97A006F050FCA34806F055FA24
:100EE000A2A006F04AFC00247E4D7F4E06F09AFC3C
:100EF000B5F9000007F006F8414606F0A4FD80466B
:100F0000B5F9020006F0FEFF494606F09CFD814659
:100F1000B5F9040006F0F6FF514606F094FD82464E
:100F2000B6F9000006F0EEFF704906F08CFD70493E
:100F300006F017FE6F4906F086FD009906F083FD66
:100F400000900F9806F00BFA641CA4B25C45CDD358
:100F50004046049906F005FE04464846049906F00A
:100F600000FE05465046049906F0FBFD064604992E
:100F7000009806F0F6FD80465FA006F0FEFB01A992
:100F8000404603F08FFA01A806F0F7FB80A006F0B8
:100F9000F4FB4046069906F0A8FD814639462046F6
:100FA00006F0A3FD494606F0DCFD814F8346F8615B
:100FB00028460C9906F099FD494606F0D2FD3862A4
:100FC000824630460B9906F090FD494606F0C9FD71
:100FD000814678624146584606F08DFD214606F06E
:100FE00087FDB8624146504606F085FD294606F069
:100FF0007FFDF8624146484606F07DFD314606F029
:1010000077FD38636BA006F0B8FB01A9F86903F01F
:1010100049FA01A806F0B1FB6FA006F0AEFB01A9EA
:10102000386A03F03FFA01A806F0A7FB6AA006F0B1
:10103000A4FB01A9786A03F035FA01A806F09DFB2C
:1010400066A006F09AFB66A006F097FB01A9B86AB5
:1010500003F028FA01A806F090FB5FA006F08DFBD4
:1010600001A9F86A03F01EFA01A806F086FB5AA04F
:1010700006F083FB01A9386B03F014FA01A806F00F
:101080007CFB56A006F079FB5EA006F076FB0349D8
:101090000020087011B0BDE8F08F000004020020AD
:1010A0000A4779726F2054656D706572617475724C
:1010B000652043616C6962726174696F6E3A0A00FF
:1010C0000A426567696E20317374204779726F2018
:1010D0004D6561737572656D656E74732E2E2E0A83
:1010E000000000000C0200200602002000404E46D6
:1010F00000008C4300000C420A4779726F2054654F
:101100006D70657261747572652052656164696E97
:10111000673A20000A0A456E6420317374204779CB
:10112000726F204D6561737572656D656E74730ABB
:10113000000000000A57616974696E6720666F726B
:10114000203135206D696E7574657320666F72206D
:101150006779726F2074656D7020746F2072697387
:10116000652E2E2E0A000000A0BB0D000A42656706
:10117000696E20326E64204779726F204D6561730D
:101180007572656D656E74732E2E2E0A0000000058
:101190000A0A456E6420326E64204779726F204DD2
:1011A0006561737572656D656E74730A0000000089
:1011B000600300200A4779726F205443204269611E
:1011C0007320536C6F70655B335D202020202020DE
:1011D0003D207B20000000002C200000207D0A0024
:1011E0000A204779726F2054432042696173204975
:1011F0006E746572636570745B335D20203D207B87
:10120000200000000A4779726F2054656D70657286
:1012100061747572652043616C6962726174696F93
:101220006E20436F6D706C6574652E0A00000000BF
:101230002DE9F34F0C46C86987B02D4906F05BFCD9
:101240000090A5692B49284606F055FC0190666977
:101250002949304606F04FFC029027692749384655
:1012600006F049FC03902649E06806F044FC04902F
:10127000DFF890B0D4F808805946404606F03BFCB1
:101280000590D4F804902049484606F034FC0690B6
:10129000D4F800A05946504606F02DFC8346184964
:1012A000079806F028FC594606F0CDFB069906F093
:1012B000CAFB059906F0C7FB049906F0C4FB039925
:1012C00006F013FC029906F010FC019906F00DFCE3
:1012D000009906F00AFCC4F804A0C4E90298079932
:1012E0002160C4E90407C4E9066509B0BDE8F08FD0
:1012F0004CF3063F0A771CC0200B8940382F57C09B
:101300007932F83AD58111BB1A1B5E3B2DE9FF5F9C
:101310000026684F012003963870B046B146B246A9
:10132000B34665A006F029FA6BA006F026FA77A06E
:1013300006F023FA7E4C7F4D77E000BF06F034FACA
:10134000B4F9000006F0DEFD296806F0D4FB314652
:1013500006F082FE07D2B4F9000006F0D3FD29683A
:1013600006F0C9FB0646B4F9000006F0CBFD29687B
:1013700006F0C1FB414606F065FE07D2B4F9000055
:1013800006F0C0FD296806F0B6FB8046B4F90200FD
:1013900006F0B8FD696806F0AEFB494606F05CFE53
:1013A00007D2B4F9020006F0ADFD696806F0A3FBB0
:1013B0008146B4F9020006F0A5FD696806F09BFBC2
:1013C000514606F03FFE07D2B4F9020006F09AFD3E
:1013D000696806F090FB8246B4F9040006F092FDBD
:1013E000A96806F088FB594606F036FE07D2B4F924
:1013F000040006F087FDA96806F07DFB8346B4F97A
:10140000040006F07FFDA96806F075FB039906F05D
:1014100019FE07D2B4F9040006F074FDA96806F0BD
:101420006AFB0390142005F0B0FF06F07EF9002857
:1014300084D04146304606F006FB4FF0FF36314679
:1014400006F0CFFB3C4C054651466063484606F02B
:10145000FAFA314606F0C5FBA0635846039906F038
:10146000F2FA314606F0BDFBE0636946284603F018
:1014700019F8684606F081F930A006F07EF9694651
:10148000A06B03F00FF8684606F077F92BA006F082
:1014900074F96946E06B03F005F8684606F06DF9EB
:1014A00027A006F06AF927A006F067F90020387037
:1014B000BDE8FF9F340000200A4D61676E65746FC0
:1014C0006D657465722043616C6962726174696FE5
:1014D0006E3A0A0A00000000526F74617465206D54
:1014E00061676E65746F6D657465722061726F758A
:1014F0006E6420616C6C2061786573206D756C740E
:1015000069706C652074696D65730A0020205365ED
:101510006E64206120636861726163746572207714
:1015200068656E20636F6D706C6574650A0A0000F3
:10153000FC0100207C0F0020600300202C20000014
:101540000A0000000A4D61676E65746F6D65746511
:10155000722043616C6962726174696F6E20436FBF
:101560006D706C6574652E0A000000001FB505F0F3
:1015700017FFFF490120DFF8FCB3DFF8FC83DFF839
:10158000FC93DFF8FCA308700024FE48017881B1C9
:10159000047005F0BDFDFC490546FC4A0868281AA0
:1015A00010600D60FFF730FB05F0B2FDF849401BFD
:1015B0000860F8480178002964D0047005F0A8FD9F
:1015C000F5490746F54A0868F54E381A10600F606D
:1015D000B6F9000006F096FCF24906F0C2FAF249AC
:1015E000096806F088FAF149496B06F081FAEF4D77
:1015F000583DA864B6F9020006F084FCE94906F0FB
:10160000B0FAE949496806F076FAE849896B06F0CC
:101610006CFAE864B6F9040006F074FCE14906F0DF
:10162000A0FAE149896806F066FAE049C96B06F05C
:101630005FFA28653480DE497480B4800120087028
:10164000DC480A22016891FBF2F1DB4A1160046078
:1016500004F0D8FF04F0F4FFD8480068686500F093
:101660002DFF9BF8000040B9D5E91301CDE9000139
:10167000AB6C0C3507CD03F025F905F049FDD049D9
:10168000C01B0860CF480178002968D0047005F0BD
:101690003FFDCD4906460868321ACC480260104624
:1016A0000E6006F038FCCA4906F025FAC949086000
:1016B00006F0DAF8C84F386806F024FC4FF0FF3126
:1016C00006F08FFAD8F8001006F00FFAD9F80010DB
:1016D00006F00BFAC14906F00EFAB44D583D6862A7
:1016E0000090786806F00EFC4FF0FF3106F079FAB2
:1016F000D8F8041006F0F9F9D9F8041006F0F5F955
:10170000514606F0F8F9A8620190B86806F0FAFBB5
:101710004FF0FF3106F065FAD8F8081006F0E5F949
:10172000D9F8081006F0E1F9514606F0E4F902464E
:10173000E8629BF80000012805D1A6480368DDE9AE
:10174000000103F06BF9A6488168A9614168E9616D
:101750000068286205F0DCFCA249801B0860A248F2
:101760000178002952D0047005F0D2FC9F4905464B
:1017700008682A1A9E48026010460D6006F0CBFBEE
:10178000934906F0B8F99B49086006F06DF89A484D
:10179000006806F0B7FB834906F0E3F94646D8F83F
:1017A000001006F0A2F9D9F8001006F09EF98B4956
:1017B00006F0A1F97D4F583F38638F48406806F026
:1017C000A1FB784906F0CDF9716806F08EF9D9F8D9
:1017D000041006F08AF9514606F08DF978638648C0
:1017E000806806F08FFB6F4906F0BBF9B16806F020
:1017F0007CF9D9F8081006F078F9514606F07BF923
:10180000B86305F085FC7D49401B08607C48017881
:1018100000297CD0047005F07BFC7A4A07461068EA
:10182000391A794801600846176006F074FB684968
:1018300006F061F9754908607548006806F062FBBA
:10184000744906F08EF97449096806F04EF9574E4E
:10185000716806F04DF9316906F04DF9A6F15805A9
:101860000090E8606A48406806F04CFB694906F061
:1018700078F96949496806F038F9B16806F038F92D
:10188000716906F038F928616148806806F03AFB12
:10189000604906F066F96049896806F026F9F16842
:1018A00006F026F9B16906F026F968615B490098EF
:1018B000FFF7BEFC5949E86020312869FFF7B8FC02
:1018C0005649286140316869FFF7B2FC686105F04C
:1018D000CBFF5348006806F015FB4E4906F041F96E
:1018E000D8F8001006F001F94E46D9F8001006F0BD
:1018F000FCF83A4906F0FFF8E8634948406806F00A
:1019000001FB444906F02DF9D8F8041000E0A0E0EE
:1019100006F0EBF8716806F0E8F8514606F0EBF8CF
:1019200028643F48806806F0EDFA3A4906F019F954
:10193000D8F8081006F0D9F8B16806F0D6F8514684
:1019400006F0D9F868649BF8000001280DD118480A
:1019500005781648036C5838D0E913128DE82E002C
:10196000836C0C3007C803F060F91148047059E02B
:101970006B01002062000020AC0F0020B80F002097
:10198000C7239FBA67010020B4010020AC010020EA
:10199000B001002068010020C0010020B801002033
:1019A000F40100200000A0407C0F00206003002014
:1019B000FA010020E0000020B0000020AC00002070
:1019C000BC0100206401002090010020880100205B
:1019D000BD378635DC010020DC0F0020C7239F3A8D
:1019E000640600208C010020650100209C0100207D
:1019F00094010020E0010020D00F00209801002079
:101A000066010020A8010020A0010020E4010020C0
:101A100024070020000020410C070020480200207D
:101A2000C40F00201E491F488A6882614A68C2614B
:101A3000096801621C480068FEF7B6FE00F0E1F894
:101A400000F086F800F09CF805F062FB1749C01B17
:101A500008601748017871B1047005F059FB154909
:101A60000546154A0868281A10600D6005F050FBFD
:101A70001249401B08601248017800293FF485ADE7
:101A8000047005F045FB0F4905460F4A0868281AFF
:101A900010600D6005F03CFB0C49401B086074E5CC
:101AA0006406002008030020E4010020A4010020B7
:101AB00069010020CC010020C4010020C8010020E1
:101AC0006A010020D8010020D0010020D4010020AC
:101AD00030B5FE48FD4AFE49807B92F8442101233F
:101AE0000024052812D0042810D001280ED0022886
:101AF0000CD003280AD0092808D0112806D01228B3
:101B000002D0152802D003E0052A01D20B7000E0B4
:101B10000C70F04916280DD2DFE800F00C0F1111FF
:101B20000D0B13130C11130C0C0C0C0C0C11160CCC
:101B30000C180C7030BD022004E0032002E00420E9
:101B400000E00620087030BD0A7030BD0B7030BD5B
:101B5000DF4810B50078002811D0DE4C241D206825
:101B600006F0F7F981B2002005F022FA606806F06D
:101B7000F0F981B2BDE81040012005F019BA10BD9E
:101B80002DE9F041D2480025007800B10225D14F5F
:101B900000240C37CF4E0AE057F8240006F0D9F99C
:101BA00081B26019C0B205F003FA641CE4B2307867
:101BB0008442F1D3BDE8F081C64AC64B00211278B9
:101BC0000C3303E043F82100491CC9B29142F9D318
:101BD000D6E72DE9F04105460024BC4EBE4F0DE08E
:101BE000306AFFF7E9FFFA2005F0CFFB3846FFF730
:101BF000E3FFFA2005F0C9FB641CE4B2AC42EFD36A
:101C0000D8E72DE9F04FB14DDFF8D4A28FB0B34F34
:101C1000A87BDAF800100591796800912946AD4E4D
:101C200009690391361DD7F80890DAF80CB03968C5
:101C30004FF03F4806F108040491162863D2DFE80C
:101C400000F0623663830BFED2FD62B1FC62626219
:101C5000626262FBFA6262F95846049905F0F3FE8B
:101C600020605846049905F040FF6060494603989B
:101C700005F041FF05F19805E96E05F0E4FE0099D5
:101C800005F0E1FE2A6FA96E02F0D4FB306055F832
:101C9000880CB96805F02FFFA96F05F0D4FE7968AC
:101CA00005F023FFEA6F696FA5F198054BE28D49B6
:101CB000009805F020FF07465846049905F0C3FE3A
:101CC000394605F0C0FE20605846049905F00DFF26
:101CD000394605F0B8FE60608349009805F00BFFB7
:101CE000594605F0B0FEA0604946039805F003FF91
:101CF000D5F81C1105F0A7FED5F82021D5F818114C
:101D000002F098FB306021E24946039805F0F3FEAB
:101D100006465846009905F0E8FE314605F0E5FE16
:101D200020605846049905F0E0FE314605F08BFE30
:101D300060605846009905F086FE314605F0D5FEF4
:101D4000A0605846049926E04946039805F0D3FE62
:101D500006465846049905F076FE8046009905F03F
:101D6000C4FE314605F0C1FE20605846049905F0D6
:101D7000BCFE0746009905F0B8FE314605F063FE4B
:101D800060603846009905F05EFE314605F0ADFE14
:101D9000A0604046009905F056FE314605F053FE1E
:101DA000E060D3E15846049905F04DFE009905F036
:101DB0009CFE20605846049905F097FE009905F0B6
:101DC00094FE60604946039805F095FE0646584625
:101DD000009905F038FE0746314605F086FEA06002
:101DE00031463846DAE74946039805F084FE0B9001
:101DF00080F0004006F0E0F806460F46009806F036
:101E0000DBF83A4A3A4BCDE9080105F09CFF8046E1
:101E100089465846049905F016FE06F0CDF842466C
:101E20004B4605F0EAFE32463B460391009005F032
:101E3000E4FE05E092E139E106E1B5E067E061E149
:101E400006F0E4F820605846049905F04EFE06F0CE
:101E5000B3F842464B4605F0D0FE32463B4607916A
:101E60000A9005F0CAFE06F0D1F860600B9806F003
:101E7000A3F880468946DDE908011E4A1E4B05F09D
:101E800062FF0C900891584606F096F8089B0C9A51
:101E900005F0B3FE834642464B46019105F0ADFE88
:101EA00006F0B4F8A06042464B460399009805F04E
:101EB000A4FE06F0ABF8E06042464B4607990A984C
:101EC00005F09BFE06F0A2F8324617E0DC03002086
:101ED0005C010020380000200000FA44300200209D
:101EE00014000020B0AA2ABFA8AAAA3F5D514A0840
:101EF0005655E5BF52D7DAFB5455F53F20613B46B6
:101F00005846019905F079FE06F080F84AE0494606
:101F1000039805F0F0FD81465846009905F0E5FD6F
:101F2000494605F0E2FD206046464146009805F02E
:101F3000E2FD80463146049805F0DDFD594605F086
:101F400082FD4146039005F07EFD494605F07BFD8C
:101F50004FF0FF3660603146009805F042FE0746BC
:101F60000146039805F06FFD494605F0BEFDA060EF
:101F70005846009905F067FD494605F064FDE060AC
:101F80003146049805F02DFE594605F05CFD0646E5
:101F9000394605F058FD494605F0A7FD2061414648
:101FA00030464BE06061D1E04946039805F0A3FD5F
:101FB000814646464146009805F09DFD80464FF01B
:101FC000FF373946049805F00CFE594605F03BFDF5
:101FD0004146059005F037FD494605F086FD206035
:101FE0003146049805F087FD594605F02CFD414621
:101FF000039005F028FD494605F025FD6060584630
:10200000049905F072FD494605F06FFDA060394660
:10201000009805F0E6FD06460146039805F013FD1D
:10202000494605F010FDE0603146059805F00BFDCE
:10203000494605F05AFD20615846049905F003FD14
:10204000494605F000FDADE74946039805F053FD0C
:102050000646924905F04FFD07465846049905F09B
:10206000F2FC009905F041FD394605F0ECFC2060DA
:102070008B49304605F03FFD07465846049905F068
:1020800034FD009905F031FD394605F0DCFC606057
:102090005846009905F0D7FC0746314605F0D3FCB9
:1020A000A0603146384605F020FD79E67D480026DF
:1020B00090F8008023E04946039805F01CFD06EBEC
:1020C000460105EB810707F5A477B96805F013FD14
:1020D00008907968009805F00EFD09903968049819
:1020E00005F009FD594605F0AEFC099905F0ABFC79
:1020F000089905F0A8FC44F82600761CF6B246457F
:10210000D9D323E0684F05F59275B969E86805F001
:10211000F2FC696805F097FC059905F094FCAA6843
:10212000296802F087F93060F969E86905F0E3FC95
:10213000696905F088FCDAF8041005F084FCAA69E6
:102140002969A5F5927502F075F97060206805F0AF
:10215000E7FE0FFA80F80126524F68E05348C4F8B2
:1021600000B003785248012BD0F89CB1D0F894917C
:10217000D0F89881D0F89071406907901DD0014641
:10218000059805F0B2FC3946039005F0B4FC07460B
:10219000DAF80400079905F0A8FC4146009005F024
:1021A000AAFC394605F04FFC30604946039805F01B
:1021B000A2FC07465946009813E03846049905F0FA
:1021C0009AFC07464046009905F095FC394605F013
:1021D0003AFC30604846049905F08DFC07465846A5
:1021E000009905F088FC394605F02DFC70603068D8
:1021F000079905F028FCD5E9681202F01BF9306058
:102200006969706805F01FFCD5E96A129BE74046D2
:1022100005F078FE54F8261005F014FF05D254F8A6
:10222000260005F07DFE0FFA80F8761CF6B23878AD
:102230008642ECD300262BE0404605F063FE814643
:10224000696A05F009FF02D354F8260009E0484600
:10225000696A05F04AFC54F8261005F049FC44F878
:102260002600D5E9081202F0E5F844F82600A9692D
:10227000DAF80C0005F0E6FE02D2286A44F82600DF
:102280000C48007810B90C4844F82600761CF6B2C9
:1022900038788642D0D30FB0BDE8F08F8A8E243FC5
:1022A0008A8E24BF38000020080300200800002088
:1022B000DC030020090000200000FA444949484896
:1022C000494B08600020014600EBC00203EB82028C
:1022D000401C51619161C0B2D1610628F4D37047AE
:1022E0002DE9F0470E4692461C4605F0FEFB0546DA
:1022F00094F82000012803D1284602F031F9054660
:102300005146284605F0F7FBE16805F09CFBE060CC
:10231000226982F0004102F08DF8E0606769804632
:102320003946304605F0E1FB514605F01AFC3946C6
:1023300005F0DBFB81462B485146006805F083FB26
:102340000146504605F00DFC494605F0D4FB3946E0
:1023500005F079FB6661A6690746314605F073FB17
:10236000E16905F070FBC4E90676014694F82000A7
:102370000128A06813D005F0BEFB06464146606800
:1023800005F0B9FB07462946206805F0B4FB39463D
:1023900005F059FB3146BDE8F04705F0A6BB05F056
:1023A000AAFB06464146606805F0A5FB074629469C
:1023B000206805F0A0FB02F0D3F8E8E70A4A00EB3A
:1023C000C00002EB8000C160704700B5002300210F
:1023D0001846FFF7F3FF5B1CDBB2062BF7D300BDFB
:1023E0003661023C5C0000208C0500202DE9F041A4
:1023F000002406460F46254605F097F9A0B105F0E2
:10240000A1F930550025641CE4B224B1301910F84C
:10241000010C3B2803D0052D01D2BC42ECD3002097
:1024200030553046BDE8F0810A2004F0AEFF6D1C47
:10243000EDB2EAE72DE9FF41002425462746009446
:10244000019402946E46039405F06FF9C0B105F053
:1024500079F930550025641CE4B224B1301910F824
:10246000010C3B2803D0052D01D20C2CECD33755A1
:10247000684607F063FA04B0BDE8F04105F0C6BD58
:102480000A2004F082FF6D1CEDB2E6E710B5FF49AB
:1024900000EBC00001EB8004FFF7CCFFA062FFF768
:1024A000C9FFE062FFF7C6FF2063FFF7C3FFA06329
:1024B00000206063E0632064606410BD2DE9F04F8C
:1024C00087B005F032F9F24D10B105F03BF92870F4
:1024D000287878272638DFF8BC83DFF8BC93752688
:1024E000EA4C4FF0720A4FF0730B52287ED2DFE8AD
:1024F00010F03F0F7D007D007D007D007D007D00A0
:102500007D007D007D007D007D007D007D007D00E3
:102510007D007D007D007D007D007D007D007D00D3
:102520007D007D007D007D00F50BFA0B020C070C91
:102530000C0C140C190C2A0C350C460C4C0C5C0CB5
:102540006C0C7C0C8C0C9F0CB40CCB0CCD0CDD0CEF
:10255000ED0CF30CFB0C0B0F170F310F7D007D0002
:102560007D00380F7D007D005200AC00FD000101B0
:1025700004011D013701500177017A019301A70180
:10258000AA01120237024B027302BD0269037704EB
:10259000AB05A00BA30BC1480A226946006801F0F5
:1025A0006DFF684605F0E9F8BDA005F0E6F8BD4806
:1025B0000A226946006801F061FF684605F0DDF80F
:1025C000B7A005F0DAF8B8480A226946006801F0B9
:1025D00055FF684605F0D1F8B1A005F0CEF8B34834
:1025E0000A226946006801F049FF00E0EBE1684615
:1025F00005F0C3F8AAA005F0C0F8AD480A22694664
:10260000006801F03BFF684605F0B7F8A4A005F0AC
:10261000B4F8A8480A226946006801F02FFF68460E
:1026200005F0ABF89EA005F0A8F8A3480A22694679
:10263000006801F023FF684605F09FF898A005F0B8
:102640009CF80A2269469D484AE09D480A2269464C
:10265000006801F013FF684605F08FF890A005F0C0
:102660008CF898480A226946006801F007FF68461E
:1026700005F083F88AA005F080F893480A2269469D
:10268000006801F0FBFE684605F077F884A005F0CD
:1026900074F88E480A226946006801F0EFFE684629
:1026A00005F06BF87EA005F068F889480A226946B3
:1026B000006801F0E3FE684605F05FF878A005F0D9
:1026C0005CF884480A226946006801F0D7FE684633
:1026D00005F053F872A005F050F87F480A226946C9
:1026E000D0F8000001F0CAFE684667E1FDF708FD7A
:1026F00001F0F0BAFEF778FBFAE76946D8F8000077
:1027000001F0D0FE684605F038F865A005F035F810
:102710006946D8F8040001F0C5FE684605F02DF8BA
:102720005FA005F02AF8D8F8080017E06946D8F845
:102730000C0001F0B7FE684605F01FF858A005F040
:102740001CF86946D8F8100001F0ACFE684605F0A8
:1027500014F853A005F011F8D8F8140069463CE0CD
:102760006946D8F8300001F09DFE684605F005F88E
:102770004BA005F002F86946D8F8340001F092FE4B
:10278000684604F0FAFF46A004F0F7FFD8F83800D6
:1027900017E06946D8F83C0001F084FE684604F072
:1027A000ECFF3FA004F0E9FF6946D8F8400001F0D3
:1027B00079FE684604F0E1FF39A004F0DEFFD8F8A6
:1027C0004400694601F06EFE684604F0D6FF34A06E
:1027D00004F0D3FF41486946006801F063FE83E7D7
:1027E000FEF794FD84E76946D8F8480001F05AFEE8
:1027F000684604F0C2FF2AA004F0BFFF6946D8F87B
:102800004C0001F04FFE684604F0B7FF24A004F02E
:10281000B4FFD8F85000A1E7D8F8480005F0CCFB89
:102820000446D8F84C000D4680F0004005F0C4FB8B
:1028300022462B4606F098FE4FF0C042284B65E03A
:10284000D8F854008AE7D8F8140080F0004005F06A
:10285000B3FB0446D8F810000D4680F0004005F0A8
:10286000ABFB22462B4606F07FFE1D4E4FF0C047C5
:102870003A46334605F067FA05F0C8FB694601F0B1
:1028800011FE684604F079FF05A02BE0DC03002070
:102890006000002008030020600300207C0100206D
:1028A0002C2000008801002094010020A0010020BD
:1028B000AC010020B8010020C4010020D00100209C
:1028C0008C01002098010020A4010020B00100200C
:1028D000BC010020C8010020D40100200802002013
:1028E00066A64C4004F049FFD8F8140080F0004080
:1028F00005F062FB04460D46D8F80C0005F05CFBC1
:1029000022462B4606F030FE3A46334605F01BFAC7
:1029100005F07CFB22E7FE4CD8F81800214605F0B4
:10292000EAF8694601F0BEFD684604F026FFAFF202
:10293000900004F022FF2146D8F81C0005F0DBF8D7
:10294000694601F0AFFD684604F017FFAFF2B00032
:1029500004F013FF2146D8F8200005F0CCF8FDE67E
:10296000EC4D0024694655F8240001F09BFD6846B3
:1029700004F003FFAFF2D80004F0FFFE641CE4B2E1
:10298000072CEFD3E869E9E6E34C207801281DD055
:10299000E2A000BF04F0F1FEAFF2FC0004F0EDFE97
:1029A0006078012814D0DDA004F0E7FEAFF210102B
:1029B00004F0E3FEA07801280CD0D8A004F0DDFEDE
:1029C000D8A004F0DAFE07B0BDE8F08FD6A0E1E7AA
:1029D000D5A0E9E7D4A0F1E7D54800880A226946E6
:1029E00001F04CFD684604F0C8FEAFF24C1004F054
:1029F000C4FECF480C3000880A22694601F03EFD33
:102A0000684604F0BAFEAFF2681004F0B6FEC9489A
:102A100000880A22694601F031FD684604F0ADFEE7
:102A2000AFF2841004F0A9FEC248001D00880A22FB
:102A3000694601F023FD684604F09FFEAFF2A01046
:102A400004F09BFEBB48083000880A22694601F06A
:102A500015FD684604F091FEAFF2BC1004F08DFE47
:102A6000B4480C3000880A2269463BE6ADA004F069
:102A700084FEB1A004F081FE6946A06A01F012FD57
:102A8000684604F07AFEAFF2E81004F076FE69467C
:102A9000E06A01F007FD684604F06FFEAFF2002027
:102AA00004F06BFE6946206B01F0FCFC684604F004
:102AB00064FEAFF2142004F060FE6946A06B01F0E2
:102AC000F1FC684604F059FEAFF22C2004F055FEEC
:102AD00094F848000A22694601F0D0FC684604F0E8
:102AE0004CFE90A004F049FE98A004F046FE694612
:102AF000E06C01F0D7FC684604F03FFEAFF26020C6
:102B000004F03BFE6946206D01F0CCFC684604F001
:102B100034FEAFF2742004F030FE6946606D01F0BF
:102B2000C1FC684604F029FEAFF28C2004F025FEBB
:102B30006946E06D01F0B6FC684604F01EFEAFF297
:102B4000A02004F01AFE94F86C000A22694601F0F5
:102B500095FC684604F011FE72A004F00EFE80A001
:102B600004F00BFE6946206F01F09CFC684604F0FF
:102B700004FEAFF2D42004F000FE6946606F01F05D
:102B800091FC684604F0F9FDAFF2EC2004F0F5FD8D
:102B90006946A06F01F086FC684604F0EEFDAFF2D6
:102BA000003004F0EAFD6946D4F8800001F07AFCB8
:102BB000684604F0E2FDAFF2183004F0DEFD94F850
:102BC000900001E157A004F0D8FD6AA004F0D5FD03
:102BD00054F8940F694601F065FC684604F0CDFD99
:102BE000AFF2443004F0C9FD6946606801F05AFC58
:102BF000684604F0C2FDAFF2583004F0BEFD6946ED
:102C0000A06801F04FFC684604F0B7FDAFF27030E9
:102C100004F0B3FD6946206901F044FC684604F005
:102C2000ACFDAFF2843004F0A8FD94F820000A2235
:102C3000694601F023FC684604F09FFD39A004F0CA
:102C40009CFD52A004F099FD6946606A01F02AFCDF
:102C5000684604F092FDAFF2B83004F08EFD69468C
:102C6000A06A01F01FFC684604F087FDAFF2D03087
:102C700004F083FD6946E06A01F014FC684604F044
:102C80007CFDAFF2E43004F078FD6946606B01F042
:102C900009FC684604F071FDAFF2FC3004F06DFDF4
:102CA00094F844000A22694601F0E8FB684604F003
:102CB00064FD1CA004F061FD3AA004F05EFD6946CD
:102CC000A06C01F0EFFB684604F057FDAFF2304016
:102CD00004F053FD6946E06C01F0E4FB684604F043
:102CE0004CFDAFF2444004F048FD6946206D01F010
:102CF000D9FB684604F041FDAFF25C4004F03DFDB5
:102D00006946A06D01F0CEFB684604F036FD55E043
:102D100033336542140000200B00002066616C73A1
:102D2000650000000A000000747275650000000074
:102D3000342C014034080040526F6C6C2052617496
:102D400065205049443A2020000000005069746317
:102D5000682052617465205049443A200000000008
:102D60005961772052617465205049443A202020EF
:102D700000000000526F6C6C2041747469747564BB
:102D800065205049443A20200000000050697463D7
:102D900068204174746974756465205049443A2010
:102DA0000000000048656164696E67205049443A3C
:102DB000202020202020202000000000AFF2205002
:102DC00004F0DBFC94F868000A22694601F056FB27
:102DD000684604F0D2FCAFF2B40004F0CEFC87E405
:102DE000AFF2C00004F0C9FCF0A004F0C6FC4C46F1
:102DF0006946D9F8100001F055FB684604F0BDFCA7
:102E0000AFF2645004F0B9FC6946606901F04AFB16
:102E1000684604F0B2FCAFF2785004F0AEFC6946AC
:102E2000A06901F03FFB684604F0A7FCAFF20C106C
:102E300004F0A3FCE4A004F0A0FC6946606801F083
:102E400031FB684604F099FCAFF2AC5004F095FCFD
:102E50006946A06801F026FB684604F08EFCAFF2DC
:102E6000C05004F08AFC6946E06801F01BFB68462C
:102E700004F083FCAFF2541004F07FFCD9A004F0FE
:102E80007CFC6946E06901F00DFB684604F075FCC6
:102E9000AFF2F45004F071FC6946206A01F002FBC5
:102EA000684604F06AFCAFF2086004F066FC69460C
:102EB000606A01F0F7FA684604F05FFCAFF29C101C
:102EC00004F05BFCCEA004F058FC6946A06A01F057
:102ED000E9FA684604F051FCAFF23C6004F04DFCA6
:102EE0006946E06A01F0DEFA684604F046FCAFF29B
:102EF000506004F042FC6946206B01F0D3FA68464A
:102F000004F03BFCAFF2E41004F037FCC3A004F083
:102F100034FC6946606B01F0C5FA684604F02DFC8C
:102F2000AFF2846004F029FC6946A06B01F0BAFAA4
:102F3000684604F022FCAFF2986004F01EFC69467B
:102F4000E06B01F0AFFA684604F017FCAFF22C20FA
:102F500004F013FCB8A004F010FC6946206C01F0EA
:102F6000A1FA684604F009FCAFF2482004F005FC21
:102F7000B8A004F002FC6946A06D01F093FA68461F
:102F800004F0FBFBAFF2642004F0F7FBB8A004F000
:102F9000F4FB6946E06D01F085FA684604F0EDFB4C
:102FA000AFF2802004F0E9FBB8A004F0E6FB69462C
:102FB000206E01F077FA684604F0DFFBAFF29C2048
:102FC00004F0DBFBB8A004F0D8FB6946606E01F0AA
:102FD00069FA684604F0D1FBAFF23C7004F0CDFB17
:102FE0006946A06E01F05EFA684604F0C6FBAFF2D7
:102FF000507004F0C2FB6946E06E01F053FA684677
:1030000004F0BBFBAFF2E42004F0B7FBADA004F08A
:10301000B4FB6946206F01F045FA684604F0ADFB49
:10302000AFF2847004F0A9FB6946606F01F03AFAD0
:10303000684604F0A2FBAFF2987004F09EFB69466C
:10304000A06F01F02FFAC3E6A5A004F096FB60780C
:1030500008B1ACA000E0ADA004F08FFBAEA004F07E
:103060008CFBB64A002003A92618135CB678401CD6
:10307000C0B28B550828F7D300220A54084604F042
:103080007CFBA4A004F079FBADA004F076FBA07B50
:10309000162811D2DFE800F0100B0D89888786858D
:1030A0001084831010101010108281101080ADA0B9
:1030B00000E0B2A004F061FBB6A004F05EFBBE48E5
:1030C0000A226946007801F0D9F9684604F055FBF8
:1030D00090A004F052FBB9A004F04FFB60890A22D3
:1030E000694601F0CBF9684604F047FB89A004F07B
:1030F00044FBBBA004F041FBA0890A22694601F011
:10310000BDF9684604F039FB82A004F036FBBDA08F
:1031100004F033FB606904F01CFF80B20A226946A8
:1031200001F0ACF9684604F028FB7AA004F025FB16
:10313000BDA004F022FBA06904F00BFF80B20A22BC
:10314000694601F09BF9684604F017FB71A004F092
:1031500014FBBEA004F011FBE06904F0FAFE80B29B
:103160000A22694601F08AF9684604F006FB69A064
:1031700004F003FBBEA004F000FB206A04F0E9FEAB
:1031800080B20A22694601F079F9684604F0F5FA3E
:1031900060A004F0F2FA7DE1A4E1A1E19EE19BE1EF
:1031A00098E195E192E18FE18CE189E1416363650A
:1031B0006C205363616C6520466163746F723A20C2
:1031C0002020202020202000416363656C2042697C
:1031D00061733A2020202020202020202020202041
:1031E000202020004779726F2054656D7020436F56
:1031F0006D7020536C6F70653A20202020202000D5
:103200004779726F2054656D7020436F6D7020494F
:103210006E746572636570743A2020004D6167209A
:10322000426961733A202020202020202020202085
:103230002020202020202000416363656C204375FE
:10324000746F66663A202020202020202020202035
:1032500020202000416363656C2056617269616EB5
:1032600063653A20202020202020202020202000DC
:103270004D61672056617269616E63653A20202056
:1032800020202020202020202020200050726F634A
:103290006573732056617269616E63653A20202000
:1032A0002020202020202000416363656C2052658F
:1032B0006620566563746F723A20202020202020FB
:1032C000202020004D61672052656620566563749A
:1032D0006F723A2020202020202020202020200053
:1032E0000A52656365697665722050574D20496EB4
:1032F00070757420547970653A2020202020202099
:103300002000000053657269616C0A0050617261AF
:103310006C6C656C0A00000043757272656E7420F7
:103320005243204368616E6E656C20417373696718
:103330006E6D656E743A202000000000A8A8000899
:103340004D6978657220436F6E6669677572617446
:10335000696F6E3A2020202020202020202020206D
:10336000000000004D554C544954595045205452CA
:1033700049434F505445520A000000004D554C54EB
:103380004954595045205155414420504C55530AF9
:10339000000000004E756D626572206F66204D6FF3
:1033A000746F72733A2020202020202020202020BB
:1033B000202020200000000038000020455343203A
:1033C00050574D20526174653A2020202020202043
:1033D000202020202020202020202020000000006D
:1033E000536572766F2050574D20526174653A20B4
:1033F00020202020202020202020202020202020CD
:10340000000000004D696420436F6D6D616E643A89
:1034100020202020202020202020202020202020AC
:1034200020202020000000004D696E204368656365
:103430006B3A202020202020202020202020202027
:103440002020202020202020000000004D61782036
:10345000436865636B3A2020202020202020202014
:1034600020202020202020202020202000000000DC
:103470004D696E205468726F74746C653A20202018
:10348000202020202020202020202020202020203C
:1034900000000000CFA004F070F9606A04F059FD4C
:1034A00080B20A22694600F0E9FF684604F065F937
:1034B000AFF2A01004F061F9A07B052814D097E0CA
:1034C000CDA0F7E5D1A0F5E5D5A0F3E5D9A0F1E5CC
:1034D000DCA0EFE5E0A0EDE5E3A0EBE5E7A0E9E5A2
:1034E000ECA0E7E5F0A0E5E5F5A004F046F904F569
:1034F0009274206804F02DFD80B20A22694600F023
:10350000BDFF684604F039F9BFA004F036F9F5A014
:1035100004F033F9606804F01CFD80B20A226946A9
:1035200000F0ACFF684604F028F9B7A004F025F9D4
:10353000F5A004F022F9A06804F00BFD80B20A2285
:10354000694600F09BFF684604F017F9AEA004F04E
:1035500014F9F6A004F011F96946E06800F0A2FF42
:10356000684604F00AF9A8A004F007F9F8A004F0EE
:1035700004F9206904F0EDFC80B20A22694600F0EB
:103580007DFF684604F0F9F89FA004F0F6F8F9A072
:1035900004F0F3F8606904F0DCFC80B20A226946AA
:1035A00000F06CFF684604F0E8F897A004F0E5F836
:1035B000F9A004F0E2F8A06904F0CBFC80B20A2282
:1035C000694600F05BFF684604F0D7F88EA004F06F
:1035D000D4F8FAA004F0D1F8E069A4F59274694631
:1035E00000F060FF684604F0C8F887A004F0C5F852
:1035F000A07B042869D1FAA004F0BFF804F5807418
:10360000206804F0A6FC80B20A22694600F036FF6A
:10361000684604F0B2F87CA004F0AFF8F9A004F01A
:10362000ACF8606804F095FC80B20A22694600F0AC
:1036300025FF684604F0A1F873A004F09EF8FAA0F4
:1036400004F09BF8A06804F084FC80B20A2269466A
:1036500000F014FF684604F090F86BA004F08DF8B9
:10366000FAA004F08AF8E06804F073FC80B20A2241
:10367000694600F003FF684604F07FF862A004F09A
:103680007CF8FBA004F079F8206904F062FC80B2B9
:103690000A22694600F0F2FE684604F06EF85AA06D
:1036A00004F06BF8FBA004F068F86069A4F580747E
:1036B00004F04FFC80B20A22694600F0DFFE684643
:1036C00004F05BF850A004F058F8A07B012835D135
:1036D000F9A004F052F8D4F8180104F03AFC80B2D2
:1036E0000A22694600F0CAFE684604F046F846A081
:1036F00004F043F8F9A004F040F8D4F81C0104F0F9
:1037000028FC80B20A22694600F0B8FE684604F040
:1037100034F83DA004F031F8F9A004F02EF8D4F804
:10372000200104F016FC80B20A22694600F0A6FED1
:10373000684604F022F834A004F01FF8A07B152896
:1037400046D1F8A004F019F804F5C874206804F014
:1037500000FC80B20A22694600F090FE684604F040
:103760000CF829A004F009F8F7A004F006F8606846
:1037700004F0EFFB80B20A22694600F07FFE684643
:1037800003F0FBFF20A003F0F8FFF8A003F0F5FF23
:10379000A06804F0DEFB80B20A22694600F06EFEEB
:1037A000684603F0EAFF18A003F0E7FFF8A003F073
:1037B000E4FFE06804F0CDFB80B20A22694600F025
:1037C0005DFE684603F0D9FF0FA003F0D6FFF1E1DC
:1037D00031E200004D61782054686F74746C653A72
:1037E00020202020202020202020202020202020D9
:1037F00020202020000000004D554C5449545950C1
:1038000045205155414420580A0000004D554C5464
:103810004954595045204249434F505445520A009B
:103820004D554C5449545950452047494D42414CFF
:103830000A0000004D554C54495459504520593602
:103840000A0000004D554C544954595045204845F4
:103850005820504C55530A004D554C54495459501A
:10386000452059340A0000004D554C5449545950D4
:10387000452048455820580A000000004D554C543A
:103880004954595045205155414420565441494CC2
:103890000A0000004D554C54495459504520465299
:1038A0004545204D49580A004D554C5449545950EE
:1038B0004520464C59494E472057494E470A00007B
:1038C00047696D62616C20526F6C6C205365727633
:1038D0006F204D696E3A20202020202020202020BB
:1038E0000000000047696D62616C20526F6C6C20B3
:1038F000536572766F204D69643A20202020202085
:10390000202020200000000047696D62616C205279
:103910006F6C6C20536572766F204D61783A202071
:1039200020202020202020200000000047696D6218
:10393000616C20526F6C6C20536572766F2047610A
:10394000696E3A2020202020202020200000000046
:1039500047696D62616C20506974636820536572B9
:10396000766F204D696E3A202020202020202020D4
:103970000000000047696D62616C205069746368E3
:1039800020536572766F204D69643A2020202020F4
:10399000202020200000000047696D62616C2050EB
:1039A0006974636820536572766F204D61783A20A0
:1039B00020202020202020200000000047696D6288
:1039C000616C20506974636820536572766F20477C
:1039D00061696E3A20202020202020200000000075
:1039E0004269436F70746572204C6566742053653C
:1039F00072766F204D696E3A2020202020202020F2
:103A0000000000004269436F70746572204C656667
:103A10007420536572766F204D69643A202020200F
:103A200020202020000000004269436F70746572FE
:103A3000204C65667420536572766F204D61783A2C
:103A40002020202020202020000000004269436F19
:103A50007074657220526967687420536572766F5E
:103A6000204D696E3A2020202020202000000000F8
:103A70004269436F7074657220526967687420539D
:103A80006572766F204D69643A2020202020202026
:103A9000000000004269436F7074657220526967CC
:103AA000687420536572766F204D61783A2020202B
:103AB0002020202000000000547269436F7074655C
:103AC000722059617720536572766F204D696E3A86
:103AD0002020202020202020000000005472694374
:103AE0006F707465722059617720536572766F200C
:103AF0004D69643A20202020202020200000000072
:103B0000547269436F7074657220596177205365F0
:103B100072766F204D61783A2020202020202020CE
:103B200000000000526F6C6C204469726563746918
:103B30006F6E204C6566743A2020202020202020C3
:103B40002020202000000000526F6C6C204469721D
:103B5000656374696F6E2052696768743A2020202B
:103B600020202020202020200000000050697463C5
:103B70006820446972656374696F6E204C65667471
:103B80003A2020202020202020202020000000009B
:103B9000506974636820446972656374696F6E204C
:103BA00052696768743A202020202020202020209D
:103BB00000000000CFA003F0E0FD206904F0C9F987
:103BC00080B20A22694600F059FC684603F0D5FD30
:103BD000AFF2CC3003F0D1FDCFA003F0CEFD606991
:103BE00004F0B7F980B20A22694600F047FC684643
:103BF00003F0C3FDAFF2F03003F0BFFDCFA003F040
:103C0000BCFDA06904F0A5F980B20A22694600F063
:103C100035FC684603F0B1FDAFF2144003F0ADFD92
:103C2000CFA003F0AAFDE06904F093F980B2FFF79A
:103C3000CBB800F0C1FC4DE0D2A003F09EFD94F89B
:103C400044010A22694600F019FC684603F095FD1C
:103C5000D4A003F092FDD4A003F08FFD0026A0466F
:103C600033E0D9A003F089FD0A226946304600F00E
:103C700005FC684603F081FDD5A003F07EFD06EB50
:103C8000460004EB800404F5A4746946206800F043
:103C900009FC684603F071FDCDA003F06EFD694696
:103CA000606800F0FFFB684603F067FDC8A003F002
:103CB00064FD6946A06800F0F5FB684603F05DFD11
:103CC000C0A003F05AFD761CF6B298F844014446B1
:103CD000B042C6D82F7007B0BDE8F08F0020FEF7C5
:103CE000D5FBBCA003E00120FEF7D0FBC1A003F090
:103CF00044FD50462CE30220FEF7C8FBC5A0F6E7C2
:103D00000320FEF7C3FBCAA003E00420FEF7BEFBBE
:103D1000D0A003F032FD58461AE30520FEF7B6FBAB
:103D2000D5A0F6E7FEF786FB6061FEF783FBA06196
:103D3000FEF780FBE061FEF77DFB2062FEF77AFB79
:103D40006062D4A086E0FEF775FB04F002F9A07370
:103D5000D9A003F012FDFDF7BBFE90E0082103A8F7
:103D6000FEF744FBDDA003F008FD03A803F005FD0A
:103D700094A003F002FD03A8FCF7CAFD82E0FEF761
:103D800059FBC9F84000DDA00BE0FEF753FB4C46A1
:103D9000C9F85800FEF74EFBE065FEF74BFB2066C6
:103DA000DDA003F0EAFC7420D2E2A07B042892D1CB
:103DB000FEF740FB04F580742060FEF73BFB60607B
:103DC000FEF738FBA060DBA044E0A07B042882D192
:103DD000FEF730FB04F586742060FEF72BFB606075
:103DE000FEF728FBA060DFA034E0A07B0128DED135
:103DF000FEF720FB04F58C742060FEF71BFB60606F
:103E0000FEF718FBA060E3A024E0A07B0528CED13C
:103E1000FEF710FB04F592742060FEF70BFB606068
:103E2000FEF708FBA060FEF705FBE060E5A011E0EF
:103E3000A07B0528BBD1FEF7FDFA04F59A7420603B
:103E4000FEF7F8FA6060FEF7F5FAA060FEF7F2FA06
:103E5000E060E7A003F091FC14E0FEF7EBFA04F059
:103E600078F86081FEF7E6FA04F073F8A081ECA020
:103E700003F083FCF24861894180A1898180F04888
:103E800003F09DF82E7026E7012077E2FEF7D2FAC4
:103E900004F5C8742060FEF7CDFA6060FEF7CAFA38
:103EA000A060FEF7C7FAE060E6A0D3E7FEF7C2FA2B
:103EB00004F5D0742060FEF7BDFA6060FEF7BAFA30
:103EC000A060FEF7B7FAE060E9A0C3E7F2A003F054
:103ED00054FC0021012004E0F8A003F04EFC012175
:103EE0000020FCF77AFD48E2FDA003F046FCFCF759
:103EF00039FD42E257696E67204C656674204D6952
:103F00006E696D756D3A2020202020202020202011
:103F1000202020200000000057696E67204C656655
:103F200074204D6178696D756D3A20202020202025
:103F300020202020202020200000000057696E67EC
:103F4000205269676874204D696E696D756D3A20FD
:103F500020202020202020202020202000000000E1
:103F600057696E67205269676874204D6178696D82
:103F7000756D3A2020202020202020202020202085
:103F8000000000000A4E756D626572206F66204663
:103F9000726565204D69786572204D6F746F72731C
:103FA0003A2020000A0A0000202020202020202083
:103FB00020526F6C6C202020205069746368202090
:103FC000205961770A0000004D6F746F7200000085
:103FD000202000000A526F6C6C20526174652050E2
:103FE00049442052656365697665642E2E2E2E0A3B
:103FF000000000000A5069746368205261746520F3
:104000005049442052656365697665642E2E2E2ED4
:104010000A0000000A5961772052617465205049F6
:10402000442052656365697665642E2E2E2E0A0043
:104030000A526F6C6C204174746974756465205009
:1040400049442052656365697665642E2E2E2E0ADA
:10405000000000000A506974636820417474697438
:1040600075646520504944205265636569766564CE
:104070002E2E2E2E0A0000000A48656164696E67C4
:10408000205049442052656365697665642E2E2E62
:104090002E0A00000A524320436F6E74726F6C2028
:1040A000506F696E74732052656365697665642E1E
:1040B0002E2E2E0A000000000A4D697865722043FA
:1040C0006F6E66696775726174696F6E20526563A1
:1040D00065697665642E2E2E2E0A00000A52432052
:1040E0004368616E6E656C204F7264657220526524
:1040F0006365697665642E2E2E2E00000A41636387
:10410000656C204375746F666620526563656976D9
:1041100065642E2E2E2E0A000A56617269616E6346
:10412000652773202052656365697665642E2E2E9F
:104130002E0A00000A4269436F70746572204C6554
:10414000667420536572766F20506172616D65747C
:104150006572732052656365697665642E2E2E2E16
:104160000A0000000A4269436F7074657220526948
:1041700067687420536572766F20506172616D6557
:10418000746572732052656365697665642E2E2EA0
:104190002E0A00000A547269436F707465722059C8
:1041A000617720536572766F20506172616D65741E
:1041B0006572732052656365697665642E2E2E2EB6
:1041C0000A0000000A47696D62616C20526F6C6CD6
:1041D00020536572766F20506172616D65746572EF
:1041E000732052656365697665642E2E2E2E0A0053
:1041F0000A47696D62616C20506974636820536579
:1042000072766F20506172616D65746572732052B1
:10421000656365697665642E2E2E2E0A0000000007
:104220000A50574D20557064617465205261746561
:10423000732052656365697665642E2E2E2E0A0002
:104240005C0100200A466C79696E672057696E67C9
:1042500020536572766F20446972656374696F6E6E
:10426000732052656365697665642E2E2E2E0A00D2
:104270000A466C79696E672057696E6720536572CC
:10428000766F204C696D6974732052656365697639
:1042900065642E2E2E2E0A000A53656E736F7220EF
:1042A000436F6E66696775726174696F6E205265DF
:1042B0007365742E2E2E2E0A000000000A537973A7
:1042C00074656D20436F6E66696775726174696F9E
:1042D0006E2052657365742E2E2E2E0A000000008B
:1042E0000A57726974696E6720454550524F4D20D8
:1042F00053656E736F7220506172616D6574657283
:10430000732E2E2E2E0A0000FEF794F803F021FEE5
:1043100084F844011BA003F030FAFDF7D9FB16E046
:10432000FEF788F803F015FEC6B2FEF783F803F037
:1043300010FEC7B2FEF77EF806EB460104EB8101E2
:1043400001EB8701C1F8480118A003F016FA7720A5
:104350002870C0E41DA003F010FA642003F015F8E3
:104360000BE0FEF767F803F0F4FD60701DA071E547
:1043700026A003F002FAFCF711FB002003F00FF96E
:10438000A9E400000A46726565204D6978204D6FEA
:10439000746F72204E756D62657220526563656937
:1043A0007665642E2E2E2E0A000000000A467265E5
:1043B00065204D69782056616C756520526563658E
:1043C000697665642E2E2E2E0A0000000A5379733A
:1043D00074656D205265736574696E672E2E2E2E7E
:1043E0000A0000000A5265636569766572205057BD
:1043F0004D20496E70757420547970652052656344
:1044000065697665642E2E2E2E0A00000A577269A1
:1044100074696E6720454550524F4D20537973742F
:10442000656D20506172616D65746572732E2E2EFC
:104430002E0A000070B5144606460D4603F002FE33
:1044400001D2284670BD2146304603F005FE01D258
:10445000204670BD304670BD70B51546B0FBF5F610
:104460000446A84203D33046FFF7F6FF014605FB9A
:10447000164041A2105C0870481C70BD70B50C4617
:10448000911E232900D30A220025002804DA2D21B9
:104490002170611C404200E02146FFF7DDFF0570FE
:1044A000204670BDF0B587B000250C463D4900950B
:1044B00001953BA60295B0F5000F02DB03F0C3FAAD
:1044C00001E003F012FB384903F015FB03F028FD6F
:1044D000071E00DA78420A2203A9FFF7CFFF002F58
:1044E00001DB202000E02D208DF8000003A803F060
:1044F000A2FA302701280AD003A803F09CFA022868
:104500000CD003A803F097FA03280CD00DE08DF827
:1045100001708DF802708DF8037006E08DF801705F
:104520008DF8027001E08DF8017003A9684603F070
:104530005FFA684603F07FFAC01EC7B23A46694682
:10454000204603F063FAE5553146204603F050FA61
:104550000DEB0701204603F04BFA07B02046F0BDF3
:10456000124A1349904201DB03F0BFBA114A90424C
:1045700001D903F068BA70473031323334353637F9
:1045800038394142434445464748494A4B4C4D4ED1
:104590004F505152535455565758595A0000000025
:1045A0002E0000006F12033A00007A44DB0F4940EE
:1045B000DB0FC940DB0F49C02DE9FE4FDFF8DC817E
:1045C000774C012188F8001000256566A566E56630
:1045D0002567656773A0A56703F0CFF87BA003F09C
:1045E000CCF889A003F0C9F803F09FF80028FBD0AD
:1045F00003F0A8F88FA003F0C0F8944F00264FF402
:104600007A7A4FF4FA6900BF01F074FFB7F900003D
:1046100003F078FC616803F068FA216903F06BFA33
:10462000616E03F065FA6066B7F9020003F06AFC98
:10463000A16803F05AFA616903F05DFAA16E03F014
:1046400057FAA066B7F9040003F05CFCE16803F0D8
:104650004CFAA16903F04FFAE16E03F049FAE06603
:10466000504602F07CFE761C36B24E45CCDB784ECE
:10467000606E314603F075FA60663146A06E03F055
:1046800070FAA0663146E06E03F06BFA0026714FB7
:10469000C4F86C0003F088F8B7F9000003F032FCAE
:1046A000616B03F022FA216F03F022FA2067B7F959
:1046B000020003F027FCA16B03F017FA616F03F00F
:1046C000C2F96067B7F9040003F01CFCE16B03F06A
:1046D0000CFAA16F03F00CFAA067142002F055FE4B
:1046E000761C36B2642ED5DB5B4E206F314603F06C
:1046F00038FA20673146606F03F033FA606731465D
:10470000A06F03F02EFAA06754A003F036F86946B4
:10471000606EFFF7C7FE684603F02FF856A003F05F
:104720002CF86946A06EFFF7BDFE684603F025F839
:1047300051A003F022F86946E06EFFF7B3FE684629
:1047400003F01BF820A003F018F84CA003F015F8B4
:104750006946206FFFF7A6FE684603F00EF846A0F4
:1047600003F00BF86946606FFFF79CFE684603F0A4
:1047700004F841A003F001F86946A06FFFF792FE2C
:10478000684602F0FAFF10A002F0F7FF41A002F025
:10479000F4FF88F80050BDE8FE8F000061000020A3
:1047A000600300200A4148525320526566657265D5
:1047B0006E636520566563746F722043616C696235
:1047C000726174696F6E3A0A0A000000506C61638E
:1047D000652073656E736F7220626F617264207200
:1047E0006967687420736964652075702C20666140
:1047F00063696E67206D61676E65746963206E6FB3
:104800007274682E0A000000202053656E642061D7
:1048100020636861726163746572207768656E20D9
:10482000726561647920746F2070726F636565646E
:104830000A0A00002020476174686572696E67206B
:10484000446174612E2E2E0A0A0000008E000020A2
:104850000000FA44FC0100200000C8420A416363E2
:10486000656C205265666572656E6365205665638A
:10487000746F723A0A0000002C2000000A4D616734
:10488000205265666572656E636520566563746F58
:10489000723A0A000A4148525320526566657265B1
:1048A0006E636520566563746F722043616C696244
:1048B000726174696F6E20436F6D706C6574652EE4
:1048C0000A0000002DE9F05F054682F0004481F007
:1048D00000409A462146DDF82CB004F005FFFE4F5B
:1048E0002146B860284604F0FFFE7860B86805F0FD
:1048F00091F88146B86805F09BFE8046786805F01F
:1049000089F80646786805F093FE044649465846FD
:1049100003F0F1F8214603F0EEF8054641460A9807
:1049200003F0E9F8214603F0E6F804463146504624
:1049300003F0E1F8214603F086F8294603F083F8F6
:1049400004464146584603F0D6F8054649460A98BB
:1049500003F0D1F8294603F0C8F880F00040214662
:1049600004F0C2FE00227A613A61FA6013463860B0
:1049700003EB4300002107EB800500BF05EB81003E
:104980008B42C0F884208261C263026608D1D34C96
:10499000266EC0F884608661A66DC663E46D046609
:1049A000491C0329EADB5B1C032BE1DBCC4901201A
:1049B0000870BDE8F09F2DE9F041C74CC94DCA4FC2
:1049C000CA4EA06803E0394603F08FF8A060A84201
:1049D000F9DC03E0394603F036F8A060B042F9D8BC
:1049E0006068A84208DD394603F07FF86060F8E7A8
:1049F000394603F028F86060B042F9D82068A84230
:104A000008DD394603F071F82060F8E7394603F015
:104A10001AF82060B042F9D8BDE8F0812DE9FF4FC7
:104A2000AD4CB9B09246A06803F0C6FA04F09CFF02
:104A300003F0ECFA0646A06803F0BEFA05F0A0FD0C
:104A400003F0E4FA8046606803F0B6FA04F08CFFE5
:104A500003F0DCFA0546606803F0AEFA05F090FD5D
:104A600003F0D4FA8146606803F0A6FA05F0E2FE8E
:104A700003F0CCFA07460146304603F03CF85146B5
:104A800003F039F883463946404603F034F83A9942
:104A900003F031F8399902F0D6FF594602F0D3FFFE
:104AA000834660615146404603F025F80390304646
:104AB0003A9903F020F80490039903F016F8369021
:104AC00020612946304603F04CF8514603F013F8B4
:104AD00006902946404603F044F83A9903F00BF853
:104AE000069902F0B0FF3790E06059463C9803F019
:104AF00002F8A16802F0A7FFA06036993C9802F086
:104B0000FAFF616802F09FFF606037993C9802F0FD
:104B1000F2FF216802F097FF20603946039802F007
:104B2000EAFF04463946049802F0E5FF214602F008
:104B3000DCFF39460890084602F0DDFF4FF07E5159
:104B400002F081FF044641463A9802F0D4FF8046C5
:104B5000214602F0D0FF07463146504602F0CBFF17
:104B60008346214602F0C7FF394602F06CFF00245D
:104B7000CDE909048AF00040314602F0BCFF41460D
:104B800002F0B3FFCDE90B040D942946039802F01F
:104B9000E8FF06462946049802F0E3FF314602F09A
:104BA000A4FF29460E90084602F0A5FF0546494697
:104BB000404602F0A0FF294602F0D3FF06464946D0
:104BC000584602F098FF294602F0CBFF314602F02A
:104BD0003AFFCDE90F04404923AA84310C4608A8C6
:104BE00000F03FFB1AA908A800F084FD2CAA1AA91E
:104BF000204600F036FB11AA2CA923A800F010FBD8
:104C0000354911AA1831104600F00AFB11AA1146C5
:104C10003C9800F09AFD2246114611A800F000FBD6
:104C2000FFF7C9FE3DB0BDE8F08F2DE9FF4FEFB0B3
:104C30002948904684306B907E9F5AA800F0C2FDB0
:104C40004146084602F057FF70990446084602F0B4
:104C500052FF6F990546084602F04DFF294602F0C3
:104C6000F2FE214602F0EFFE05F0CEFD0646384684
:104C700003F0A2F904460D46304603F09DF91C4AA4
:104C80001C4B03F05AF821F0004122462B4603F05A
:104C9000A9F97CD2104CA06803F08EF904F064FEF0
:104CA00003F0B4F92190606803F086F904F05CFE2B
:104CB00003F0ACF90990206803F07EF904F054FE8B
:104CC00003F0A4F91F90A06803F076F905F058FCF2
:104CD00003F09CF983460FE0640600206003002087
:104CE00062000020DB0F4940DB0FC940DB0F49C0E9
:104CF000B0726891ED9C2340606803F05DF905F0A7
:104D00003FFC03F083F90546206803F055F905F0F0
:104D100037FC03F07BF9149009991F9802F0EBFE21
:104D200016901499099802F0E6FE179085F000405D
:104D300018901499219802F0DEFE064663905946B9
:104D40001F9802F0D8FE2946239002F0D4FE314687
:104D5000649002F0CAFE19905846149902F0CBFEF6
:104D60008246294602F0C7FE07461F99219802F0A5
:104D7000C2FE8146394602F066FE26901A905946D8
:104D8000099802F0B8FE1B902946484600E048E129
:104D900002F0B1FE0146504602F055FE81462590D4
:104DA0001C902946304602F0A6FE2990239902F075
:104DB0009CFE1D900999219802F09DFE1E90FE48D0
:104DC00068AA416E6C91816E6D91C06E6E908A463C
:104DD00007466CA916A86C9E00F037FC00200B90CB
:104DE0005046149902F087FE294602F084FE669030
:104DF00030461F9902F07FFE2946289002F07BFE84
:104E0000659087F00040099902F075FE659902F0FF
:104E10006CFE669902F069FE0C903046099902F02A
:104E20006AFE149902F067FE659050461F9902F0E1
:104E300062FE099902F05FFE659902F056FE0D9040
:104E40003846219902F057FE6590099902F053FE09
:104E500066902999239802F048FE5146239002F06B
:104E60004AFE29903146484602F045FE299902F053
:104E70003CFE669902F0E7FD0E905046099902F05B
:104E80003AFE594602F037FE149902F034FE27909C
:104E90005946384602F02FFE294602F02CFE814684
:104EA0000999289802F027FE594602F024FE494647
:104EB00002F01BFE279902F0C6FD0F90DDE96301A9
:104EC00002F013FE5146279002F015FE814686F04F
:104ED0000040269902F00FFE494602F006FE1090AF
:104EE0003846099902F007FE594602F004FE814651
:104EF0005146269802F0FFFD07463146279802F0FA
:104F0000FAFD394602F0F1FD494602F0EEFD11903E
:104F10005046219902F0EFFD099902F0ECFD149939
:104F200002F0E9FD07462946659802F0E4FD0546D2
:104F30003046219902F0DFFD1F9902F0DCFD09994E
:104F400002F0D9FD294602F0D0FD394602F07BFD82
:104F500012905146259802F0CEFD05463146239821
:104F600002F0C9FD294602F06EFD139048A90BA876
:104F700000F0C0FB3FAA48A96B9800F072F96A469E
:104F80003FA90BA800F06DF96A4604F13C011046F8
:104F900000F046F96946084600F09CFA36AA6946D0
:104FA0003FA800F05EF951AA0BA936A800F059F904
:104FB0006A4651A9814800F0C8FB6A4611465AA8C2
:104FC00000F02EF96B9A6846114600F04AF96F9886
:104FD00033907098CDE934086899339802F085FDD4
:104FE00033906999349802F080FD34906A9935982D
:104FF00002F07BFD35902AAA33A936A800F025FBE4
:105000002A99A06802F01FFDA0602B99606802F049
:105010001AFD60602C99206802F015FD2060FFF7F2
:10502000CAFC7F9801287DD1654CA06802F0C4FFBE
:1050300004F09AFC02F0EAFF8246606802F0BCFFCE
:1050400004F092FC02F0E2FF8046206802F0B4FF18
:1050500004F08AFC02F0DAFF0646A06802F0ACFF1A
:1050600005F08EFA02F0D2FF8146606802F0A4FFDC
:1050700005F086FA02F0CAFF8346206802F09CFF22
:1050800005F07EFA02F0C2FF07464B480025016F8B
:105090002D91416F2E91806F2F900C952D9820911E
:1050A0000B952290394602F026FD23903146209838
:1050B00002F021FD239902F018FDCDE90D053946D6
:1050C0000F95209802F017FD23902298314680F02A
:1050D000004002F010FD239902F007FDCDE9100514
:1050E000129516961395CDE9177587F00040CDE916
:1050F0001A6519904FF07E501C95CDE91D502DAAD0
:10510000114616A800F0A1FA729830907C98319060
:105110007D9832905946CDF85880484602F0EBFC15
:10512000594600E078E01790504602F0E4FC18A9D8
:10513000A1E8210489F000401B908BF000401C90F6
:105140004946404602F0D7FC1D904146504602F0C9
:10515000D2FC30AA1E90114616A800F076FA2D99BE
:10516000309802F0C2FC30902E99319802F0BDFCCC
:1051700031902F99329802F0B8FC329048A90BA8D0
:1051800000F0B8FA3FAA48A96B9800F06AF86A469E
:105190003FA90BA800F065F86A4604F160011046CB
:1051A00000F03EF86946084600F094F936AA6946D0
:1051B0003FA800F056F805E060030020000080BF23
:1051C0006406002051AA0BA936A800F04AF86A46E6
:1051D00051A9124800F0B9FA6A4611465AA800F0DF
:1051E0001FF86B9A6846114600F03BF82AAA30A9CE
:1051F00036A800F02AFA2A99A06802F024FCA060E0
:105200002B99606802F01FFC60602C99206802F006
:105210001AFC2060FFF7CFFB73B004E5000080BFED
:105220002DE9F05F81468A469346002505EB45004F
:1052300000240AEB800609EB80070BEB800800BF17
:1052400056F8241057F8240002F0FDFB48F824001B
:10525000641C032CF4DB6D1C032DE7DB0120BDE88F
:10526000F09F2DE9F74FD1F818B0866804460D4637
:1052700098B05946304602F03EFC8246E8680A90F3
:1052800067680146384602F036FC814628680B9074
:10529000D4F800800146404602F02DFC494602F059
:1052A000D2FB514602F0CFFB0090E8690C9001461A
:1052B000304602F020FC139028690D9001463846D4
:1052C00002F019FCD5F804A081465146404602F090
:1052D00012FC494602F0B7FB139902F0B4FB0190AF
:1052E000286A0F900146304602F005FC1390686969
:1052F00010900146384602F0FEFBD5F808900646AD
:105300004946404602F0F7FB314602F09CFB1399F8
:1053100002F099FB029065695946284602F0EBFBC2
:10532000159026690A99304602F0E5FBE768804649
:1053300038460B9902F0DFFB414602F084FB1599D9
:1053400002F081FB039028460C9902F0D4FB1590E3
:1053500030460D9902F0CFFB80465146384602F0A8
:10536000CAFB414602F06FFB159902F06CFB0490FA
:1053700028460F9902F0BFFB80463046109902F094
:10538000BAFB05464946384602F0B5FB294602F00D
:105390005AFB414602F057FB0590256A59462846BC
:1053A00002F0A9FBE669804630460A9902F0A3FBA9
:1053B000A469074620460B9902F09DFB394602F08E
:1053C00042FB414602F03FFB069028460C9902F052
:1053D00092FB804630460D9902F08DFB0746514600
:1053E000204602F088FB394602F02DFB414602F0D0
:1053F0002AFB079028460F9902F07DFB07463046AE
:10540000109902F078FB05464946204602F073FBEE
:10541000294602F018FB394602F015FB00216C46C4
:10542000089001EB41031A9D04EB8302002005EB79
:10543000830300BF52F8205043F82050401C03283B
:10544000F8DB491C0329ECDB1BB00120BDE8F08F21
:105450002DE9F05F8768056904463946284602F061
:105460004AFBD4F80480666981464146304602F022
:1054700042FB494602F039FBA16902F03CFBD4F83B
:105480001C9083463946484602F035FB276A82461F
:105490004146384602F02FFB514602F026FBE168F8
:1054A00002F029FB80463146484602F024FB0646BE
:1054B0002946384602F01FFB314602F016FB2168F0
:1054C00002F019FB414602F010FB5946BDE8F05FBF
:1054D00002F0B9BA2DE9F04F95B08B460446FFF7BC
:1054E000B7FF00906569E0692946029002F003FB6E
:1054F0002669D4F8208007463146404602F0FBFA80
:10550000394602F0F2FA009902F02BFB0A9060682B
:1055100006900146404602F0EEFAD4F808A007468D
:105520005146029802F0E7FA394602F0DEFA009995
:1055300002F017FB0B905146304602F0DCFA0746AA
:105540002846069902F0D7FA394602F0CEFA0099B9
:1055500002F007FB0C90E7684046394602F0CBFAB0
:105560000990D4F818902946484602F0C4FA0999DF
:1055700002F0BBFA009902F0F4FA0D905146484649
:1055800002F0B9FA139024684046214602F0B3FABB
:10559000139902F0AAFA009902F0E3FA0E9021465C
:1055A000284602F0A8FA05465146384602F0A3FA0A
:1055B000294602F09AFA009902F0D3FA0F90314688
:1055C000484602F098FA05463946029802F093FAE6
:1055D000294602F08AFA009902F0C3FA1090214697
:1055E000029802F088FA05464846069902F083FAC6
:1055F000294602F07AFA009902F0B3FA119038467F
:10560000069902F078FA05462146304602F073FA10
:10561000294602F06AFA009902F0A3FA00210AABC7
:10562000129001EB410403EB840200200BEB840495
:1056300052F8205044F82050401C0328F8DB491C45
:105640000329EEDB012015B000E72DE9FE4FD1F86C
:10565000088004460D4616468068414602F04BFA23
:105660006F6882463946606802F045FA2D688146C7
:105670002946206802F03FFA494602F0E4F9514613
:1056800002F0E1F900904146606902F034FA824686
:105690003946206902F02FFA81462946E06802F077
:1056A0002AFA494602F0CFF9514602F0CCF90190AE
:1056B0004146206A02F01FFA80463946E06902F04E
:1056C0001AFA07462946A06902F015FA394602F08F
:1056D000BAF9414602F0B7F9029000204FEA0D01F5
:1056E00051F8202046F82020401C0328F8DB012038
:1056F000BDE8FE8F70B589B002680092C268019261
:10570000826902924268039202690492C269059218
:105710008268069242690792006A00226D460890EC
:1057200002EB420405EB8403002001EB840400BF7C
:1057300053F8206044F82060401C0328F8DB521C1A
:10574000032AEDDB09B0012070BD70B50C4615468B
:105750000646096802F0CFF928603046616802F019
:10576000CAF968603046A16802F0C5F9A860304601
:10577000E16802F0C0F9E8603046216902F0BBF947
:1057800028613046616902F0B6F968613046A16966
:1057900002F0B1F9A8613046E16902F0ACF9E861C4
:1057A0003046216A02F0A7F92862012070BD00216D
:1057B000016041608160C160016141618161C161DD
:1057C0000162704700B50246FFF7F1FF4FF07E50CF
:1057D00010601061106200BD324810B5016841F0E0
:1057E000010101604168304A1140416001682F4A5F
:1057F00011400160016821F480210160416821F4B9
:10580000FE0141604FF41F01816000F005F8284956
:105810004FF00060086010BD22480021026842F489
:10582000803202604FF4A063026801F1010112F4BA
:10583000003F01D19942F7D10168890330D51D4954
:105840000A6842F010020A600A6822F003020A6045
:105850000A6842F002020A604168416041684160A2
:10586000416841F480614160416821F47C114160EC
:10587000416841F4E8114160016841F080710160C4
:1058800001688901FCD5416821F00301416041684C
:1058900041F0020141604168C1F381010229FAD15E
:1058A00070470000001002400000FFF8FFFFF6FE06
:1058B00008ED00E00020024018490843184908603C
:1058C000704770B50F21C478027801234FF0E026AD
:1058D000DCB1134C246804F4E064C4F5E064250AE8
:1058E000C5F10404E9404578A54084780C402C4378
:1058F00021010C4C1155007800F01F018B4040092C
:1059000006EB8000C0F8003170BD02F01F0083403C
:10591000500906EB8000C0F8803170BD0000FA0528
:105920000CED00E000E400E001684FF6FE7211406B
:1059300001600021016041608160C1604F494F4AB0
:105940000839904203D1486840F00F0006E04B4A06
:105950001432904204D1486840F0F000486070472B
:10596000464A2832904203D1486840F47060F5E717
:10597000424A3C32904203D1486840F47040EDE71F
:105980003E4A5032904203D1486840F47020E5E727
:105990003A4A6432904203D1486840F47000DDE72F
:1059A000364A7832904203D1486840F07060D5E7BB
:1059B000334A111F904203D1086840F00F0006E0FF
:1059C0002F4A1432904204D1086840F0F000086079
:1059D00070472B4A2832904203D1086840F4706027
:1059E000F5E7274A3C32904203D1086840F4704002
:1059F000EDE7234A50329042EAD1086840F4702023
:105A0000E5E730B5036847F6F07293430C6A8A689D
:105A10002243D1E904452C4322438C692243CC69BB
:105A200022434C6A22438C6A22431A430260CA68AA
:105A300042600A6882604968C16030BD002901681F
:105A400002D041F0010102E04FF6FE721140016008
:105A50007047002A026801D00A4300E08A430260CE
:105A60007047406880B27047C10003D50449091FE0
:105A700008607047014908394860704708000240D3
:105A80000804024037483649416037494160704751
:105A90003448016941F080010161704731490420B7
:105AA000CA68D20701D001207047CA68520701D5E1
:105AB00002207047C968C906FBD50320704700B5AE
:105AC0000346FFF7EBFF02E0FFF7E8FF5B1E01284C
:105AD00003D0002B00D1052000BD002BF4D1FAE744
